:1000000028040020E9030000B1030000B50300004C
:10001000C5030000C7030000C9030000FFFFFFFF86
:10002000FFFFFFFFFFFFFFFFFFFFFFFFCB0300000E
:10003000CD030000FFFFFFFFCF030000D10300004E
:100040009F0400009F0400009F040000FFFFFFFFCB
:100050009F0400009F0400009F0400009F04000014
:100060009F0400009F0400009F0400009F04000004
:100070009F0400009F0400009F0400009F040000F4
:100080009F0400009F0400009F0400009F040000E4
:100090009F0400009F0400009F0400009F040000D4
:1000A0009F0400009F040000FFFFFFFF9F0400006B
:1000B0009F0400009F0400009F0400009F040000B4
:1000C0009F0400009F0400009F0400009F040000A4
:1000D0009F040000FFFFFFFFFFFFFFFFFFFFFFFF89
:1000E000FFFFFFFF9F0400009F0400009F0400002B
:1000F0009F0400009F0400009F0400009F04000074
:100100009F0400009F0400009F0400009F04000063
:100110009F0400009F0400009F0400009F04000053
:100120009F0400009F0400009F0400009F04000043
:100130009F0400009F0400009F0400009F04000033
:100140009F0400009F0400009F040000FFFFFFFFCA
:040150009F04000008
:10015400044B05481B1A062B02D9044B03B118475C
:10016400704700BF070200200402002000000000C6
:1001740005490648091A891001EBD171491002D0CA
:10018400034B03B118477047040200200402002007
:100194000000000010B5064C237843B9FFF7D8FFE0
:1001A400044B13B10448AFF300800123237010BD46
:1001B4000402002000000000D404000008B5084B2D
:1001C4001BB108490848AFF300800848036813B915
:1001D400BDE80840CCE7064B002BF9D09847F7E779
:1001E4000000000008020020D404000004020020E3
:1001F4000000000070B50F4E0F4D761BB61018BFEF
:10020400002405D0013455F8043B9847A642F9D19F
:100214000A4E0B4D00F05CF9761BB61018BF002493
:1002240006D0013455F8043B9847A642F9D170BD75
:1002340070BD00BFEC040000EC040000F0040000FA
:10024400EC04000070470000552306E09900064ABC
:100254001268096842F82310013B002BF6DA024BBE
:100264001B68024ADA63704700020020490200005A
:1002740008B5FFF7E9FF4FF00051084600F0A8F871
:10028400054B064A5A60F021054A82F823100022E1
:100294009A6007221A60FEE710E000E0FEFFFF000C
:1002A40000ED00E0364B1022DA600123354AC2F833
:1002B4000033354A1360354B9B68272BFBD1314AF9
:1002C400536A23F440635362314B01221A60314B69
:1002D4001B68002BFBD02B4A536823F0070343F021
:1002E40003035360274B5B6B9B0F032BFAD12A4A02
:1002F400D2F8003223F0070343F00103C2F80032BE
:10030400002302F500421362244A13600123843A55
:10031400136088321360224B1B68002BFBD0002330
:10032400194A1360A2F5BF621360164B4FF01062B6
:100334009A611A4B01221A601A4B1B68002BFBD0DE
:10034400154AD2F8003223F0070343F00303C2F83E
:10035400003202F5004201231362536823F00303C1
:1003640043F001035360074B5B6B9B0F012BFAD1E6
:100374000D4A136020321360143A1360704700BFB3
:1003840000810840008008401806104300A1064080
:10039400AC0010430C01104300000840A4001043BB
:1003A400080110430401104310400043704700004B
:1003B400024B1B68002BFBD0704700BF20020020BB
:1003C400FEE7FEE7FEE7704770477047704700009E
:1003D40021F0604121F07F010143014B9960704796
:1003E40000ED00E02D4885462D4880472D48804784
:1003F400002103E02C4B5B58435004312B482C4B19
:1004040042189A42F6D32B4A02E0002313600432C6
:10041400294B9A42F9D3FFF7EDFEFFF729FFFEE7D8
:1004240026480169002908D14169002905D181695B
:10043400002902D1C169002909D02148C1680901F4
:10044400090D00290FD001290DD002290BD0BFF3CB
:100454004F8F4FF000501B4901601B491948C86079
:10046400BFF34F8FFEE74FF00050016815488842F4
:1004740000D0704715484FF0010101604FF0005063
:100484004FF0000101607047FEE7FEE7FEE7FEE77C
:10049400FEE7FEE7FEE7FEE7FEE7FEE728040020AE
:1004A40025040000A9020000F4040000000200205A
:1004B400040200200402002024020020000308405B
:1004C400800108400400FA0500ED00E000810840C6
:1004D400F8B500BFF8BC08BC9E467047F8B500BF2D
:0804E400F8BC08BC9E467047FD
:0404EC00C10100004A
:0404F000990100006E
:0404F40000000020E4
:04000003000003E90D
:00000001FF
